{"abi":[{"type":"function","name":"SHARES_MULTIPLIER","inputs":[],"outputs":[{"name":"","type":"uint256","internalType":"uint256"}],"stateMutability":"view"},{"type":"function","name":"authorizations","inputs":[{"name":"","type":"address","internalType":"address"},{"name":"","type":"address","internalType":"address"}],"outputs":[{"name":"","type":"bool","internalType":"bool"}],"stateMutability":"view"},{"type":"function","name":"borrow","inputs":[{"name":"marketParams","type":"tuple","internalType":"struct IMorphoBlue.MarketParams","components":[{"name":"loanToken","type":"address","internalType":"address"},{"name":"collateralToken","type":"address","internalType":"address"},{"name":"oracle","type":"address","internalType":"address"},{"name":"irm","type":"address","internalType":"address"},{"name":"lltv","type":"uint256","internalType":"uint256"}]},{"name":"assets","type":"uint256","internalType":"uint256"},{"name":"","type":"uint256","internalType":"uint256"},{"name":"onBehalf","type":"address","internalType":"address"},{"name":"","type":"address","internalType":"address"}],"outputs":[{"name":"assetsBorrowed","type":"uint256","internalType":"uint256"},{"name":"sharesBorrowed","type":"uint256","internalType":"uint256"}],"stateMutability":"nonpayable"},{"type":"function","name":"idFromMarketParams","inputs":[{"name":"marketParams","type":"tuple","internalType":"struct IMorphoBlue.MarketParams","components":[{"name":"loanToken","type":"address","internalType":"address"},{"name":"collateralToken","type":"address","internalType":"address"},{"name":"oracle","type":"address","internalType":"address"},{"name":"irm","type":"address","internalType":"address"},{"name":"lltv","type":"uint256","internalType":"uint256"}]}],"outputs":[{"name":"","type":"bytes32","internalType":"bytes32"}],"stateMutability":"pure"},{"type":"function","name":"isAuthorized","inputs":[{"name":"authorizer","type":"address","internalType":"address"},{"name":"authorized","type":"address","internalType":"address"}],"outputs":[{"name":"","type":"bool","internalType":"bool"}],"stateMutability":"view"},{"type":"function","name":"market","inputs":[{"name":"id","type":"bytes32","internalType":"bytes32"}],"outputs":[{"name":"","type":"tuple","internalType":"struct IMorphoBlue.Market","components":[{"name":"totalSupplyAssets","type":"uint128","internalType":"uint128"},{"name":"totalSupplyShares","type":"uint128","internalType":"uint128"},{"name":"totalBorrowAssets","type":"uint128","internalType":"uint128"},{"name":"totalBorrowShares","type":"uint128","internalType":"uint128"},{"name":"lastUpdate","type":"uint128","internalType":"uint128"},{"name":"fee","type":"uint128","internalType":"uint128"}]}],"stateMutability":"view"},{"type":"function","name":"markets","inputs":[{"name":"","type":"bytes32","internalType":"bytes32"}],"outputs":[{"name":"totalSupplyAssets","type":"uint128","internalType":"uint128"},{"name":"totalSupplyShares","type":"uint128","internalType":"uint128"},{"name":"totalBorrowAssets","type":"uint128","internalType":"uint128"},{"name":"totalBorrowShares","type":"uint128","internalType":"uint128"},{"name":"lastUpdate","type":"uint128","internalType":"uint128"},{"name":"fee","type":"uint128","internalType":"uint128"}],"stateMutability":"view"},{"type":"function","name":"position","inputs":[{"name":"id","type":"bytes32","internalType":"bytes32"},{"name":"account","type":"address","internalType":"address"}],"outputs":[{"name":"","type":"tuple","internalType":"struct IMorphoBlue.Position","components":[{"name":"supplyShares","type":"uint256","internalType":"uint256"},{"name":"borrowShares","type":"uint128","internalType":"uint128"},{"name":"collateral","type":"uint128","internalType":"uint128"}]}],"stateMutability":"view"},{"type":"function","name":"positions","inputs":[{"name":"","type":"bytes32","internalType":"bytes32"},{"name":"","type":"address","internalType":"address"}],"outputs":[{"name":"supplyShares","type":"uint256","internalType":"uint256"},{"name":"borrowShares","type":"uint128","internalType":"uint128"},{"name":"collateral","type":"uint128","internalType":"uint128"}],"stateMutability":"view"},{"type":"function","name":"repay","inputs":[{"name":"marketParams","type":"tuple","internalType":"struct IMorphoBlue.MarketParams","components":[{"name":"loanToken","type":"address","internalType":"address"},{"name":"collateralToken","type":"address","internalType":"address"},{"name":"oracle","type":"address","internalType":"address"},{"name":"irm","type":"address","internalType":"address"},{"name":"lltv","type":"uint256","internalType":"uint256"}]},{"name":"assets","type":"uint256","internalType":"uint256"},{"name":"","type":"uint256","internalType":"uint256"},{"name":"onBehalf","type":"address","internalType":"address"},{"name":"","type":"bytes","internalType":"bytes"}],"outputs":[{"name":"assetsRepaid","type":"uint256","internalType":"uint256"},{"name":"sharesRepaid","type":"uint256","internalType":"uint256"}],"stateMutability":"nonpayable"},{"type":"function","name":"setAuthorization","inputs":[{"name":"authorized","type":"address","internalType":"address"},{"name":"newIsAuthorized","type":"bool","internalType":"bool"}],"outputs":[],"stateMutability":"nonpayable"},{"type":"function","name":"supply","inputs":[{"name":"marketParams","type":"tuple","internalType":"struct IMorphoBlue.MarketParams","components":[{"name":"loanToken","type":"address","internalType":"address"},{"name":"collateralToken","type":"address","internalType":"address"},{"name":"oracle","type":"address","internalType":"address"},{"name":"irm","type":"address","internalType":"address"},{"name":"lltv","type":"uint256","internalType":"uint256"}]},{"name":"assets","type":"uint256","internalType":"uint256"},{"name":"","type":"uint256","internalType":"uint256"},{"name":"onBehalf","type":"address","internalType":"address"},{"name":"","type":"bytes","internalType":"bytes"}],"outputs":[{"name":"assetsSupplied","type":"uint256","internalType":"uint256"},{"name":"sharesSupplied","type":"uint256","internalType":"uint256"}],"stateMutability":"nonpayable"},{"type":"function","name":"supplyCollateral","inputs":[{"name":"marketParams","type":"tuple","internalType":"struct IMorphoBlue.MarketParams","components":[{"name":"loanToken","type":"address","internalType":"address"},{"name":"collateralToken","type":"address","internalType":"address"},{"name":"oracle","type":"address","internalType":"address"},{"name":"irm","type":"address","internalType":"address"},{"name":"lltv","type":"uint256","internalType":"uint256"}]},{"name":"assets","type":"uint256","internalType":"uint256"},{"name":"onBehalf","type":"address","internalType":"address"},{"name":"","type":"bytes","internalType":"bytes"}],"outputs":[],"stateMutability":"nonpayable"},{"type":"function","name":"withdraw","inputs":[{"name":"marketParams","type":"tuple","internalType":"struct IMorphoBlue.MarketParams","components":[{"name":"loanToken","type":"address","internalType":"address"},{"name":"collateralToken","type":"address","internalType":"address"},{"name":"oracle","type":"address","internalType":"address"},{"name":"irm","type":"address","internalType":"address"},{"name":"lltv","type":"uint256","internalType":"uint256"}]},{"name":"assets","type":"uint256","internalType":"uint256"},{"name":"","type":"uint256","internalType":"uint256"},{"name":"onBehalf","type":"address","internalType":"address"},{"name":"","type":"address","internalType":"address"}],"outputs":[{"name":"assetsWithdrawn","type":"uint256","internalType":"uint256"},{"name":"sharesWithdrawn","type":"uint256","internalType":"uint256"}],"stateMutability":"nonpayable"},{"type":"function","name":"withdrawCollateral","inputs":[{"name":"marketParams","type":"tuple","internalType":"struct IMorphoBlue.MarketParams","components":[{"name":"loanToken","type":"address","internalType":"address"},{"name":"collateralToken","type":"address","internalType":"address"},{"name":"oracle","type":"address","internalType":"address"},{"name":"irm","type":"address","internalType":"address"},{"name":"lltv","type":"uint256","internalType":"uint256"}]},{"name":"assets","type":"uint256","internalType":"uint256"},{"name":"onBehalf","type":"address","internalType":"address"},{"name":"","type":"address","internalType":"address"}],"outputs":[],"stateMutability":"nonpayable"}],"bytecode":{"object":"0x608060405234801561001057600080fd5b50610f89806100206000396000f3fe608060405234801561001057600080fd5b50600436106100f55760003560e01c80635c60e39a1161009757806393c520621161006657806393c52062146103f5578063a99aad89146104a6578063eecea000146104b9578063f2449f58146104ff57600080fd5b80635c60e39a1461022557806365e4ad9e146103355780637564912b146103485780638720316d146103e257600080fd5b8063238d6579116100d3578063238d65791461018257806329d885941461019757806350d8cd4b146101ff5780635c2bea491461021257600080fd5b806306899031146100fa5780631325d5f11461013d57806320b76e811461015a575b600080fd5b610128610108366004610b14565b600260209081526000928352604080842090915290825290205460ff1681565b60405190151581526020015b60405180910390f35b61014c670de0b6b3a764000081565b604051908152602001610134565b61016d610168366004610c74565b610512565b60408051928352602083019190915201610134565b610195610190366004610ce9565b610651565b005b6101da6101a5366004610d53565b6001602081815260009384526040808520909152918352912080549101546001600160801b0380821691600160801b90041683565b604080519384526001600160801b039283166020850152911690820152606001610134565b61016d61020d366004610d76565b6106d0565b61016d610220366004610d76565b6107dd565b6102d4610233366004610dd0565b6040805160c081018252600080825260208201819052918101829052606081018290526080810182905260a08101919091525060009081526020818152604091829020825160c08101845281546001600160801b038082168352600160801b9182900481169483019490945260018301548085169583019590955293849004831660608201526002909101548083166080830152929092041660a082015290565b6040516101349190600060c0820190506001600160801b038084511683528060208501511660208401528060408501511660408401528060608501511660608401528060808501511660808401528060a08501511660a08401525092915050565b610128610343366004610b14565b6108f9565b6103a0610356366004610dd0565b6000602081905290815260409020805460018201546002909201546001600160801b0380831693600160801b93849004821693818316939181900483169282811692919091041686565b604080516001600160801b03978816815295871660208701529386169385019390935290841660608401528316608083015290911660a082015260c001610134565b6101956103f0366004610de9565b610929565b610473610403366004610d53565b60408051606080820183526000808352602080840182905292840181905294855260018083528386206001600160a01b03959095168652938252938290208251948501835280548552909201546001600160801b0380821693850193909352600160801b90049091169082015290565b60408051825181526020808401516001600160801b03908116918301919091529282015190921690820152606001610134565b61016d6104b4366004610c74565b61097d565b6101956104c7366004610e38565b3360009081526002602090815260408083206001600160a01b0395909516835293905291909120805460ff1916911515919091179055565b61014c61050d366004610e74565b610a86565b600080600061052088610a86565b9050670de0b6b3a76400006105358189610ead565b61053f9190610ec4565b60008281526020819052604081206001018054929450899290919061056e9084906001600160801b0316610ee6565b92506101000a8154816001600160801b0302191690836001600160801b031602179055508160008083815260200190815260200160002060010160108282829054906101000a90046001600160801b03166105c99190610ee6565b82546101009290920a6001600160801b0381810219909316918316021790915560008381526001602081815260408084206001600160a01b038c1685529091528220018054869450909261061f91859116610ee6565b92506101000a8154816001600160801b0302191690836001600160801b03160217905550869250509550959350505050565b600061065c85610a86565b60008181526001602081815260408084206001600160a01b038916855290915290912001805491925085916010906106a5908490600160801b90046001600160801b0316610f0d565b92506101000a8154816001600160801b0302191690836001600160801b031602179055505050505050565b60008060006106de88610a86565b9050670de0b6b3a76400006106f38189610ead565b6106fd9190610ec4565b60008281526020819052604081206001018054929450899290919061072c9084906001600160801b0316610f0d565b92506101000a8154816001600160801b0302191690836001600160801b031602179055508160008083815260200190815260200160002060010160108282829054906101000a90046001600160801b03166107879190610f0d565b82546101009290920a6001600160801b0381810219909316918316021790915560008381526001602081815260408084206001600160a01b038c1685529091528220018054869450909261061f91859116610f0d565b60008060006107eb88610a86565b9050670de0b6b3a76400006108008189610ead565b61080a9190610ec4565b6000828152602081905260408120805492945089929091906108369084906001600160801b0316610ee6565b92506101000a8154816001600160801b0302191690836001600160801b031602179055508160008083815260200190815260200160002060000160108282829054906101000a90046001600160801b03166108919190610ee6565b82546001600160801b039182166101009390930a92830291909202199091161790555060008181526001602090815260408083206001600160a01b0389168452909152812080548492906108e6908490610f2d565b9091555087935050509550959350505050565b6001600160a01b0380831660009081526002602090815260408083209385168352929052205460ff165b92915050565b600061093485610a86565b60008181526001602081815260408084206001600160a01b038916855290915290912001805491925085916010906106a5908490600160801b90046001600160801b0316610ee6565b600080600061098b88610a86565b9050670de0b6b3a76400006109a08189610ead565b6109aa9190610ec4565b6000828152602081905260408120805492945089929091906109d69084906001600160801b0316610f0d565b92506101000a8154816001600160801b0302191690836001600160801b031602179055508160008083815260200190815260200160002060000160108282829054906101000a90046001600160801b0316610a319190610f0d565b82546001600160801b039182166101009390930a92830291909202199091161790555060008181526001602090815260408083206001600160a01b0389168452909152812080548492906108e6908490610f40565b600081604051602001610adb919081516001600160a01b039081168252602080840151821690830152604080840151821690830152606080840151909116908201526080918201519181019190915260a00190565b604051602081830303815290604052805190602001209050919050565b80356001600160a01b0381168114610b0f57600080fd5b919050565b60008060408385031215610b2757600080fd5b610b3083610af8565b9150610b3e60208401610af8565b90509250929050565b634e487b7160e01b600052604160045260246000fd5b600060a08284031215610b6f57600080fd5b60405160a0810181811067ffffffffffffffff82111715610b9257610b92610b47565b604052905080610ba183610af8565b8152610baf60208401610af8565b6020820152610bc060408401610af8565b6040820152610bd160608401610af8565b6060820152608083013560808201525092915050565b600082601f830112610bf857600080fd5b813567ffffffffffffffff80821115610c1357610c13610b47565b604051601f8301601f19908116603f01168101908282118183101715610c3b57610c3b610b47565b81604052838152866020858801011115610c5457600080fd5b836020870160208301376000602085830101528094505050505092915050565b60008060008060006101208688031215610c8d57600080fd5b610c978787610b5d565b945060a0860135935060c08601359250610cb360e08701610af8565b915061010086013567ffffffffffffffff811115610cd057600080fd5b610cdc88828901610be7565b9150509295509295909350565b6000806000806101008587031215610d0057600080fd5b610d0a8686610b5d565b935060a08501359250610d1f60c08601610af8565b915060e085013567ffffffffffffffff811115610d3b57600080fd5b610d4787828801610be7565b91505092959194509250565b60008060408385031215610d6657600080fd5b82359150610b3e60208401610af8565b60008060008060006101208688031215610d8f57600080fd5b610d998787610b5d565b945060a0860135935060c08601359250610db560e08701610af8565b9150610dc46101008701610af8565b90509295509295909350565b600060208284031215610de257600080fd5b5035919050565b6000806000806101008587031215610e0057600080fd5b610e0a8686610b5d565b935060a08501359250610e1f60c08601610af8565b9150610e2d60e08601610af8565b905092959194509250565b60008060408385031215610e4b57600080fd5b610e5483610af8565b915060208301358015158114610e6957600080fd5b809150509250929050565b600060a08284031215610e8657600080fd5b610e908383610b5d565b9392505050565b634e487b7160e01b600052601160045260246000fd5b808202811582820484141761092357610923610e97565b600082610ee157634e487b7160e01b600052601260045260246000fd5b500490565b6001600160801b03828116828216039080821115610f0657610f06610e97565b5092915050565b6001600160801b03818116838216019080821115610f0657610f06610e97565b8181038181111561092357610923610e97565b8082018082111561092357610923610e9756fea2646970667358221220905060430b4349ffbc92bc7361d46f6c15aac56e0289811291ece952666a166f64736f6c63430008130033","linkReferences":{}},"methodIdentifiers":{"SHARES_MULTIPLIER()":"1325d5f1","authorizations(address,address)":"06899031","borrow((address,address,address,address,uint256),uint256,uint256,address,address)":"50d8cd4b","idFromMarketParams((address,address,address,address,uint256))":"f2449f58","isAuthorized(address,address)":"65e4ad9e","market(bytes32)":"5c60e39a","markets(bytes32)":"7564912b","position(bytes32,address)":"93c52062","positions(bytes32,address)":"29d88594","repay((address,address,address,address,uint256),uint256,uint256,address,bytes)":"20b76e81","setAuthorization(address,bool)":"eecea000","supply((address,address,address,address,uint256),uint256,uint256,address,bytes)":"a99aad89","supplyCollateral((address,address,address,address,uint256),uint256,address,bytes)":"238d6579","withdraw((address,address,address,address,uint256),uint256,uint256,address,address)":"5c2bea49","withdrawCollateral((address,address,address,address,uint256),uint256,address,address)":"8720316d"},"id":7}