{"abi":[{"type":"constructor","inputs":[{"name":"_morpho","type":"address","internalType":"address"}],"stateMutability":"nonpayable"},{"type":"function","name":"authorizeAgent","inputs":[{"name":"agent","type":"address","internalType":"address"},{"name":"policyHash","type":"bytes32","internalType":"bytes32"}],"outputs":[],"stateMutability":"nonpayable"},{"type":"function","name":"borrowWithProof","inputs":[{"name":"market","type":"address","internalType":"address"},{"name":"assets","type":"uint256","internalType":"uint256"},{"name":"onBehalf","type":"address","internalType":"address"},{"name":"receiver","type":"address","internalType":"address"},{"name":"proof","type":"tuple","internalType":"struct IMorphoSpendingGate.SpendingProof","components":[{"name":"policyHash","type":"bytes32","internalType":"bytes32"},{"name":"proof","type":"bytes","internalType":"bytes"},{"name":"publicInputs","type":"bytes32[]","internalType":"bytes32[]"},{"name":"timestamp","type":"uint256","internalType":"uint256"},{"name":"signature","type":"bytes","internalType":"bytes"}]}],"outputs":[{"name":"shares","type":"uint256","internalType":"uint256"}],"stateMutability":"nonpayable"},{"type":"function","name":"getAgentConfig","inputs":[{"name":"agent","type":"address","internalType":"address"}],"outputs":[{"name":"","type":"tuple","internalType":"struct IMorphoSpendingGate.AgentConfig","components":[{"name":"agent","type":"address","internalType":"address"},{"name":"owner","type":"address","internalType":"address"},{"name":"policyHash","type":"bytes32","internalType":"bytes32"},{"name":"dailySpent","type":"uint256","internalType":"uint256"},{"name":"lastResetTimestamp","type":"uint256","internalType":"uint256"},{"name":"isActive","type":"bool","internalType":"bool"}]}],"stateMutability":"view"},{"type":"function","name":"getDailySpent","inputs":[{"name":"agent","type":"address","internalType":"address"}],"outputs":[{"name":"","type":"uint256","internalType":"uint256"}],"stateMutability":"view"},{"type":"function","name":"getPolicy","inputs":[{"name":"policyHash","type":"bytes32","internalType":"bytes32"}],"outputs":[{"name":"","type":"tuple","internalType":"struct IMorphoSpendingGate.SpendingPolicy","components":[{"name":"dailyLimit","type":"uint256","internalType":"uint256"},{"name":"maxSingleTx","type":"uint256","internalType":"uint256"},{"name":"maxLTV","type":"uint256","internalType":"uint256"},{"name":"minHealthFactor","type":"uint256","internalType":"uint256"},{"name":"allowedMarkets","type":"address[]","internalType":"address[]"},{"name":"requireProofForSupply","type":"bool","internalType":"bool"},{"name":"requireProofForBorrow","type":"bool","internalType":"bool"},{"name":"requireProofForWithdraw","type":"bool","internalType":"bool"}]}],"stateMutability":"view"},{"type":"function","name":"getPolicyHash","inputs":[{"name":"policy","type":"tuple","internalType":"struct IMorphoSpendingGate.SpendingPolicy","components":[{"name":"dailyLimit","type":"uint256","internalType":"uint256"},{"name":"maxSingleTx","type":"uint256","internalType":"uint256"},{"name":"maxLTV","type":"uint256","internalType":"uint256"},{"name":"minHealthFactor","type":"uint256","internalType":"uint256"},{"name":"allowedMarkets","type":"address[]","internalType":"address[]"},{"name":"requireProofForSupply","type":"bool","internalType":"bool"},{"name":"requireProofForBorrow","type":"bool","internalType":"bool"},{"name":"requireProofForWithdraw","type":"bool","internalType":"bool"}]}],"outputs":[{"name":"","type":"bytes32","internalType":"bytes32"}],"stateMutability":"pure"},{"type":"function","name":"getRemainingDailyLimit","inputs":[{"name":"agent","type":"address","internalType":"address"}],"outputs":[{"name":"","type":"uint256","internalType":"uint256"}],"stateMutability":"view"},{"type":"function","name":"isAgentAuthorized","inputs":[{"name":"agent","type":"address","internalType":"address"},{"name":"owner","type":"address","internalType":"address"}],"outputs":[{"name":"","type":"bool","internalType":"bool"}],"stateMutability":"view"},{"type":"function","name":"isProofUsed","inputs":[{"name":"proofHash","type":"bytes32","internalType":"bytes32"}],"outputs":[{"name":"","type":"bool","internalType":"bool"}],"stateMutability":"view"},{"type":"function","name":"morpho","inputs":[],"outputs":[{"name":"","type":"address","internalType":"contract IMorphoBlue"}],"stateMutability":"view"},{"type":"function","name":"registerPolicy","inputs":[{"name":"policy","type":"tuple","internalType":"struct IMorphoSpendingGate.SpendingPolicy","components":[{"name":"dailyLimit","type":"uint256","internalType":"uint256"},{"name":"maxSingleTx","type":"uint256","internalType":"uint256"},{"name":"maxLTV","type":"uint256","internalType":"uint256"},{"name":"minHealthFactor","type":"uint256","internalType":"uint256"},{"name":"allowedMarkets","type":"address[]","internalType":"address[]"},{"name":"requireProofForSupply","type":"bool","internalType":"bool"},{"name":"requireProofForBorrow","type":"bool","internalType":"bool"},{"name":"requireProofForWithdraw","type":"bool","internalType":"bool"}]}],"outputs":[{"name":"policyHash","type":"bytes32","internalType":"bytes32"}],"stateMutability":"nonpayable"},{"type":"function","name":"repayWithProof","inputs":[{"name":"market","type":"address","internalType":"address"},{"name":"assets","type":"uint256","internalType":"uint256"},{"name":"onBehalf","type":"address","internalType":"address"},{"name":"proof","type":"tuple","internalType":"struct IMorphoSpendingGate.SpendingProof","components":[{"name":"policyHash","type":"bytes32","internalType":"bytes32"},{"name":"proof","type":"bytes","internalType":"bytes"},{"name":"publicInputs","type":"bytes32[]","internalType":"bytes32[]"},{"name":"timestamp","type":"uint256","internalType":"uint256"},{"name":"signature","type":"bytes","internalType":"bytes"}]}],"outputs":[{"name":"repaid","type":"uint256","internalType":"uint256"}],"stateMutability":"nonpayable"},{"type":"function","name":"revokeAgent","inputs":[{"name":"agent","type":"address","internalType":"address"}],"outputs":[],"stateMutability":"nonpayable"},{"type":"function","name":"supplyWithProof","inputs":[{"name":"market","type":"address","internalType":"address"},{"name":"assets","type":"uint256","internalType":"uint256"},{"name":"onBehalf","type":"address","internalType":"address"},{"name":"proof","type":"tuple","internalType":"struct IMorphoSpendingGate.SpendingProof","components":[{"name":"policyHash","type":"bytes32","internalType":"bytes32"},{"name":"proof","type":"bytes","internalType":"bytes"},{"name":"publicInputs","type":"bytes32[]","internalType":"bytes32[]"},{"name":"timestamp","type":"uint256","internalType":"uint256"},{"name":"signature","type":"bytes","internalType":"bytes"}]}],"outputs":[{"name":"shares","type":"uint256","internalType":"uint256"}],"stateMutability":"nonpayable"},{"type":"function","name":"verifyProof","inputs":[{"name":"proof","type":"tuple","internalType":"struct IMorphoSpendingGate.SpendingProof","components":[{"name":"policyHash","type":"bytes32","internalType":"bytes32"},{"name":"proof","type":"bytes","internalType":"bytes"},{"name":"publicInputs","type":"bytes32[]","internalType":"bytes32[]"},{"name":"timestamp","type":"uint256","internalType":"uint256"},{"name":"signature","type":"bytes","internalType":"bytes"}]}],"outputs":[{"name":"","type":"bool","internalType":"bool"}],"stateMutability":"pure"},{"type":"function","name":"withdrawWithProof","inputs":[{"name":"market","type":"address","internalType":"address"},{"name":"assets","type":"uint256","internalType":"uint256"},{"name":"onBehalf","type":"address","internalType":"address"},{"name":"receiver","type":"address","internalType":"address"},{"name":"proof","type":"tuple","internalType":"struct IMorphoSpendingGate.SpendingProof","components":[{"name":"policyHash","type":"bytes32","internalType":"bytes32"},{"name":"proof","type":"bytes","internalType":"bytes"},{"name":"publicInputs","type":"bytes32[]","internalType":"bytes32[]"},{"name":"timestamp","type":"uint256","internalType":"uint256"},{"name":"signature","type":"bytes","internalType":"bytes"}]}],"outputs":[{"name":"shares","type":"uint256","internalType":"uint256"}],"stateMutability":"nonpayable"},{"type":"event","name":"AgentAuthorized","inputs":[{"name":"owner","type":"address","indexed":true,"internalType":"address"},{"name":"agent","type":"address","indexed":true,"internalType":"address"},{"name":"policyHash","type":"bytes32","indexed":false,"internalType":"bytes32"}],"anonymous":false},{"type":"event","name":"AgentRevoked","inputs":[{"name":"owner","type":"address","indexed":true,"internalType":"address"},{"name":"agent","type":"address","indexed":true,"internalType":"address"}],"anonymous":false},{"type":"event","name":"BorrowExecuted","inputs":[{"name":"agent","type":"address","indexed":true,"internalType":"address"},{"name":"market","type":"address","indexed":true,"internalType":"address"},{"name":"amount","type":"uint256","indexed":false,"internalType":"uint256"},{"name":"proofHash","type":"bytes32","indexed":false,"internalType":"bytes32"}],"anonymous":false},{"type":"event","name":"PolicyRegistered","inputs":[{"name":"owner","type":"address","indexed":true,"internalType":"address"},{"name":"policyHash","type":"bytes32","indexed":true,"internalType":"bytes32"},{"name":"policy","type":"tuple","indexed":false,"internalType":"struct IMorphoSpendingGate.SpendingPolicy","components":[{"name":"dailyLimit","type":"uint256","internalType":"uint256"},{"name":"maxSingleTx","type":"uint256","internalType":"uint256"},{"name":"maxLTV","type":"uint256","internalType":"uint256"},{"name":"minHealthFactor","type":"uint256","internalType":"uint256"},{"name":"allowedMarkets","type":"address[]","internalType":"address[]"},{"name":"requireProofForSupply","type":"bool","internalType":"bool"},{"name":"requireProofForBorrow","type":"bool","internalType":"bool"},{"name":"requireProofForWithdraw","type":"bool","internalType":"bool"}]}],"anonymous":false},{"type":"event","name":"ProofSubmitted","inputs":[{"name":"agent","type":"address","indexed":true,"internalType":"address"},{"name":"policyHash","type":"bytes32","indexed":true,"internalType":"bytes32"},{"name":"proofHash","type":"bytes32","indexed":false,"internalType":"bytes32"},{"name":"timestamp","type":"uint256","indexed":false,"internalType":"uint256"}],"anonymous":false},{"type":"event","name":"ProofVerified","inputs":[{"name":"agent","type":"address","indexed":true,"internalType":"address"},{"name":"policyHash","type":"bytes32","indexed":true,"internalType":"bytes32"},{"name":"proofHash","type":"bytes32","indexed":false,"internalType":"bytes32"}],"anonymous":false},{"type":"event","name":"RepayExecuted","inputs":[{"name":"agent","type":"address","indexed":true,"internalType":"address"},{"name":"market","type":"address","indexed":true,"internalType":"address"},{"name":"amount","type":"uint256","indexed":false,"internalType":"uint256"},{"name":"proofHash","type":"bytes32","indexed":false,"internalType":"bytes32"}],"anonymous":false},{"type":"event","name":"SupplyExecuted","inputs":[{"name":"agent","type":"address","indexed":true,"internalType":"address"},{"name":"market","type":"address","indexed":true,"internalType":"address"},{"name":"amount","type":"uint256","indexed":false,"internalType":"uint256"},{"name":"proofHash","type":"bytes32","indexed":false,"internalType":"bytes32"}],"anonymous":false},{"type":"event","name":"WithdrawExecuted","inputs":[{"name":"agent","type":"address","indexed":true,"internalType":"address"},{"name":"market","type":"address","indexed":true,"internalType":"address"},{"name":"amount","type":"uint256","indexed":false,"internalType":"uint256"},{"name":"proofHash","type":"bytes32","indexed":false,"internalType":"bytes32"}],"anonymous":false},{"type":"error","name":"AgentNotAuthorized","inputs":[]},{"type":"error","name":"ExceedsDailyLimit","inputs":[]},{"type":"error","name":"ExceedsSingleTxLimit","inputs":[]},{"type":"error","name":"HealthFactorTooLow","inputs":[]},{"type":"error","name":"InvalidProof","inputs":[]},{"type":"error","name":"InvalidSignature","inputs":[]},{"type":"error","name":"LTVExceeded","inputs":[]},{"type":"error","name":"MarketNotAllowed","inputs":[]},{"type":"error","name":"PolicyNotFound","inputs":[]},{"type":"error","name":"ProofExpired","inputs":[]}],"bytecode":{"object":"0x60a060405234801561001057600080fd5b506040516200213f3803806200213f83398101604081905261003191610042565b6001600160a01b0316608052610072565b60006020828403121561005457600080fd5b81516001600160a01b038116811461006b57600080fd5b9392505050565b608051612095620000aa6000396000818161031e015281816103ec01528181610559015281816107830152610ce801526120956000f3fe608060405234801561001057600080fd5b50600436106101005760003560e01c80637da6ac0d11610097578063d8fbc83311610066578063d8fbc83314610319578063e5e5aa3114610358578063ec37d2591461036b578063f6c2d7511461037e57600080fd5b80637da6ac0d146102be578063a3f685f9146102d3578063c3a93179146102f3578063d84937fc1461030657600080fd5b8063557bbf7f116100d3578063557bbf7f1461016457806356bad863146101975780635b8c9337146102985780637050e235146102ab57600080fd5b806302ba24c614610105578063260cac7e1461012b5780632616fc181461013e5780634161ffa014610151575b600080fd5b610118610113366004611678565b610391565b6040519081526020015b60405180910390f35b6101186101393660046116e4565b6103aa565b61011861014c3660046116e4565b6104e3565b61011861015f366004611678565b610652565b610187610172366004611750565b60009081526003602052604090205460ff1690565b6040519015158152602001610122565b6102416101a5366004611769565b6040805160c081018252600080825260208201819052918101829052606081018290526080810182905260a0810191909152506001600160a01b03908116600090815260016020818152604092839020835160c0810185528154861681529281015490941690820152600283015491810191909152600382015460608201526004820154608082015260059091015460ff16151560a082015290565b604051610122919081516001600160a01b0390811682526020808401519091169082015260408083015190820152606080830151908201526080808301519082015260a09182015115159181019190915260c00190565b6101186102a6366004611769565b6106c7565b6101186102b9366004611786565b610705565b6102d16102cc366004611769565b610880565b005b6102e66102e1366004611750565b610927565b6040516101229190611805565b6101876103013660046118bb565b610a46565b6101876103143660046118f8565b610a77565b6103407f000000000000000000000000000000000000000000000000000000000000000081565b6040516001600160a01b039091168152602001610122565b6102d1610366366004611931565b610ad0565b610118610379366004611769565b610c0a565b61011861038c366004611786565b610c77565b60006103a461039f83611a54565b610dd4565b92915050565b3360009081526001602052604081206103c7818487896003610e2b565b60006103d28761110a565b6040516320b76e8160e01b81529091506001600160a01b037f000000000000000000000000000000000000000000000000000000000000000016906320b76e81906104289084908a906000908b90600401611b35565b60408051808303816000875af1158015610446573d6000803e3d6000fd5b505050506040513d601f19601f8201168201806040525081019061046a9190611b7d565b509250600061047c6020860186611ba1565b60405161048a929190611bef565b604080519182900382208983526020830181905292506001600160a01b038a169133917f7466d74320590e65465f8dcbce8c4df5a8e8939bc52ee6dcbe10518f2594272b910160405180910390a3505050949350505050565b3360009081526001602052604081206104ff8184878986610e2b565b60028101546000908152602081905260409020600581015460ff1661052a5761052a8282888a611164565b6105348287611261565b600061053f8861110a565b60405163a99aad8960e01b81529091506001600160a01b037f0000000000000000000000000000000000000000000000000000000000000000169063a99aad89906105959084908b906000908c90600401611b35565b60408051808303816000875af11580156105b3573d6000803e3d6000fd5b505050506040513d601f19601f820116820180604052508101906105d79190611b7d565b9450600090506105ea6020870187611ba1565b6040516105f8929190611bef565b604080519182900382208a83526020830181905292506001600160a01b038b169133917fd64f05cd01998b35b71b2fdac9f13ac5d5c2e4106759935ee85e40f44022868d910160405180910390a350505050949350505050565b600061066061039f83611a54565b6000818152602081905260409020909150829061067d8282611cd0565b90505080336001600160a01b03167f2cdb8f69753bb06f9c2b8dc9ae0afc70ca8eda7950e7b714b7a82a13fe0c314b846040516106ba9190611e13565b60405180910390a3919050565b6001600160a01b038116600090815260016020526040812060048101546106ed9061129e565b156106fb5750600092915050565b6003015492915050565b3360009081526001602052604081206107228184888a6002610e2b565b60028101546000908152602081905260409020600581015462010000900460ff1615610754576107548282898b611164565b61075e8288611261565b60006107698961110a565b604051635c2bea4960e01b81529091506001600160a01b037f00000000000000000000000000000000000000000000000000000000000000001690635c2bea49906107c19084908c906000908d908d90600401611ee5565b60408051808303816000875af11580156107df573d6000803e3d6000fd5b505050506040513d601f19601f820116820180604052508101906108039190611b7d565b9450600090506108166020870187611ba1565b604051610824929190611bef565b604080519182900382208b83526020830181905292506001600160a01b038c169133917f6039c03007b8a384d522375b5e06abab5bd2c651707bffc872ed1d8a3e7525b291015b60405180910390a35050505095945050505050565b6001600160a01b0380821660009081526001602081905260409091209081015490911633146108c25760405163316ac86960e21b815260040160405180910390fd5b60058101805460ff199081169091553360008181526002602090815260408083206001600160a01b0388168085529252808320805490951690945592517f3855bc4f5f7ba28049e0abd622b6ffbbf63cb46e6b09593b9213c9fd38db5cad9190a35050565b61097560405180610100016040528060008152602001600081526020016000815260200160008152602001606081526020016000151581526020016000151581526020016000151581525090565b6000828152602081815260409182902082516101008101845281548152600182015481840152600282015481850152600382015460608201526004820180548551818602810186019096528086529194929360808601939290830182828015610a0757602002820191906000526020600020905b81546001600160a01b031681526001909101906020018083116109e9575b50505091835250506005919091015460ff8082161515602084015261010082048116151560408401526201000090910416151560609091015292915050565b600080610a566020840184611ba1565b90501180156103a45750610a6d6080830183611ba1565b6041149392505050565b6001600160a01b03808216600090815260026020908152604080832093861683529290529081205460ff168015610ac957506001600160a01b03831660009081526001602052604090206005015460ff165b9392505050565b600081815260208190526040902054158015610afb5750600081815260208190526040902060020154155b15610b195760405163720caa4f60e01b815260040160405180910390fd5b6040805160c0810182526001600160a01b038481168083523360208085018281528587018881526000606088018181524260808a01908152600160a08b018181528985528188528c85209b518c54908c166001600160a01b0319918216178d5596518c8301805491909c1697169690961790995592516002808b0191909155905160038a01559151600489015591516005909701805497151560ff1998891617905583825282528681208482528252869020805490951690931790935592518481527f96a03b20d8e3ce1b5d1d63b95c8c25511513e905650783ef4c867c04170cc478910160405180910390a35050565b6001600160a01b03811660009081526001602090815260408083206002810154845291839052822060038201546004830154610c459061129e565b15610c4e575060005b81548110610c6157506000949350505050565b8154610c6e908290611f21565b95945050505050565b336000908152600160208190526040822090610c9a908290859089908b90610e2b565b60028101546000908152602081905260409020610cb98282898b611164565b610cc38288611261565b6000610cce8961110a565b6040516350d8cd4b60e01b81529091506001600160a01b037f000000000000000000000000000000000000000000000000000000000000000016906350d8cd4b90610d269084908c906000908d908d90600401611ee5565b60408051808303816000875af1158015610d44573d6000803e3d6000fd5b505050506040513d601f19601f82011682018060405250810190610d689190611b7d565b945060009050610d7b6020870187611ba1565b604051610d89929190611bef565b604080519182900382208b83526020830181905292506001600160a01b038c169133917ff771944e9cace56078fbdaa03a0ed1b143ac25b4b54d826edcd7ac7421cbb570910161086b565b80516020808301516040808501516060860151608087015160a088015160c089015160e08a01519551600099610e0e999098979101611f34565b604051602081830303815290604052805190602001209050919050565b600585015460ff16610e505760405163316ac86960e21b815260040160405180910390fd5b6000610e5f6020860186611ba1565b604051610e6d929190611bef565b604080519182900390912060008181526003602052919091205490915060ff1615610eab576040516309bde33960e01b815260040160405180910390fd5b610eb885606001356112b6565b610ed55760405163b67a771360e01b815260040160405180910390fd5b6002860154853514610efa576040516309bde33960e01b815260040160405180910390fd5b6000610f11610f0c6040880188611fba565b6112cd565b905082816020015114610f37576040516309bde33960e01b815260040160405180910390fd5b84816040015114610f5b576040516309bde33960e01b815260040160405180910390fd5b836001600160a01b031681606001516001600160a01b031614610f91576040516309bde33960e01b815260040160405180910390fd5b60808101516001600160a01b03163314610fbe576040516309bde33960e01b815260040160405180910390fd5b6000828260c00151604051602001610fe0929190918252602082015260400190565b60408051601f1981840301815291905280516020909101209050611046338261100c60808b018b611ba1565b8080601f01602080910402602001604051908101604052809392919081815260200183838082843760009201919091525061145d92505050565b61106357604051638baa579f60e01b815260040160405180910390fd5b60008381526003602052604090819020805460ff191660011790555187359033907f2c950fd6a4628ee6a395a7ad3132c1d171005b549d28ba7149397d47800b0041906110c090879060608d013590918252602082015260400190565b60405180910390a360405183815287359033907f22bab73ff31bb5cb9a7dfe2a4b95b31e9ed548776192378f2dd873ea3a6e113b9060200160405180910390a35050505050505050565b6040805160a080820183526000808352602080840182905283850182905260608085018390526080948501839052855193840186526001600160a01b03969096168352820181905292810183905292830182905282015290565b6111ca81846004018054806020026020016040519081016040528092919081815260200182805480156111c057602002820191906000526020600020905b81546001600160a01b031681526001909101906020018083116111a2575b5050505050611549565b6111e7576040516337a9c63960e11b815260040160405180910390fd5b6111f58284600101546115c0565b611212576040516365ddd82960e11b815260040160405180910390fd5b600384015460048501546112259061129e565b1561122e575060005b61123d838286600001546115d8565b61125a5760405163158081a560e21b815260040160405180910390fd5b5050505050565b61126e826004015461129e565b1561128157600382015542600490910155565b808260030160008282546112959190612004565b90915550505050565b60006112ad6201518083612004565b42101592915050565b60006112c461012c83612004565b42111592915050565b6040805160e081018252600080825260208201819052918101829052606081018290526080810182905260a0810182905260c0810191909152600782101561135c5760405162461bcd60e51b815260206004820152601a60248201527f496e73756666696369656e74207075626c696320696e7075747300000000000060448201526064015b60405180910390fd5b8282600081811061136f5761136f612017565b60200291909101358252508282600181811061138d5761138d612017565b9050602002013560001c816020018181525050828260028181106113b3576113b3612017565b6020029190910135604083015250828260038181106113d4576113d4612017565b60200291909101356001600160a01b0316606083015250828260048181106113fe576113fe612017565b60200291909101356001600160a01b03166080830152508282600581811061142857611428612017565b602002919091013560a0830152508282600681811061144957611449612017565b602002919091013560c08301525092915050565b6040517f19457468657265756d205369676e6564204d6573736167653a0a3332000000006020820152603c81018390526000908190605c0160405160208183030381529060405280519060200120905060008060006114bb866115ef565b9250925092506000600185838686604051600081526020016040526040516114ff949392919093845260ff9290921660208401526040830152606082015260800190565b6020604051602081039080840390855afa158015611521573d6000803e3d6000fd5b5050604051601f1901516001600160a01b03908116908b161496505050505050509392505050565b6000815160000361155c575060016103a4565b60005b82518110156115b657836001600160a01b031683828151811061158457611584612017565b60200260200101516001600160a01b0316036115a45760019150506103a4565b806115ae8161202d565b91505061155f565b5060009392505050565b6000816000036115d2575060016103a4565b50101590565b6000816115e58585612004565b1115949350505050565b600080600083516041146116455760405162461bcd60e51b815260206004820152601860248201527f496e76616c6964207369676e6174757265206c656e67746800000000000000006044820152606401611353565b50505060208101516040820151606083015160001a601b8110156116715761166e601b82612046565b90505b9193909250565b60006020828403121561168a57600080fd5b813567ffffffffffffffff8111156116a157600080fd5b82016101008185031215610ac957600080fd5b6001600160a01b03811681146116c957600080fd5b50565b600060a082840312156116de57600080fd5b50919050565b600080600080608085870312156116fa57600080fd5b8435611705816116b4565b935060208501359250604085013561171c816116b4565b9150606085013567ffffffffffffffff81111561173857600080fd5b611744878288016116cc565b91505092959194509250565b60006020828403121561176257600080fd5b5035919050565b60006020828403121561177b57600080fd5b8135610ac9816116b4565b600080600080600060a0868803121561179e57600080fd5b85356117a9816116b4565b94506020860135935060408601356117c0816116b4565b925060608601356117d0816116b4565b9150608086013567ffffffffffffffff8111156117ec57600080fd5b6117f8888289016116cc565b9150509295509295909350565b600060208083526101208301845182850152818501516040850152604085015160608501526060850151608085015260808501516101008060a0870152828251808552610140880191508584019450600093505b808410156118825784516001600160a01b03168252938501936001939093019290850190611859565b5060a088015180151560c0890152945060c088015180151560e0890152945060e08801518015158884015294505b979650505050505050565b6000602082840312156118cd57600080fd5b813567ffffffffffffffff8111156118e457600080fd5b6118f0848285016116cc565b949350505050565b6000806040838503121561190b57600080fd5b8235611916816116b4565b91506020830135611926816116b4565b809150509250929050565b6000806040838503121561194457600080fd5b823561194f816116b4565b946020939093013593505050565b634e487b7160e01b600052604160045260246000fd5b604051610100810167ffffffffffffffff811182821017156119975761199761195d565b60405290565b600082601f8301126119ae57600080fd5b8135602067ffffffffffffffff808311156119cb576119cb61195d565b8260051b604051601f19603f830116810181811084821117156119f0576119f061195d565b604052938452858101830193838101925087851115611a0e57600080fd5b83870191505b848210156118b0578135611a27816116b4565b83529183019190830190611a14565b80151581146116c957600080fd5b8035611a4f81611a36565b919050565b60006101008236031215611a6757600080fd5b611a6f611973565b82358152602083013560208201526040830135604082015260608301356060820152608083013567ffffffffffffffff811115611aab57600080fd5b611ab73682860161199d565b608083015250611ac960a08401611a44565b60a0820152611ada60c08401611a44565b60c0820152611aeb60e08401611a44565b60e082015292915050565b80516001600160a01b03908116835260208083015182169084015260408083015182169084015260608083015190911690830152608090810151910152565b6000610120611b448388611af6565b60a08301959095525060c08101929092526001600160a01b031660e0820152610100810182905260009181019190915261014001919050565b60008060408385031215611b9057600080fd5b505080516020909101519092909150565b6000808335601e19843603018112611bb857600080fd5b83018035915067ffffffffffffffff821115611bd357600080fd5b602001915036819003821315611be857600080fd5b9250929050565b8183823760009101908152919050565b634e487b7160e01b600052601160045260246000fd5b600081356103a4816116b4565b67ffffffffffffffff831115611c3a57611c3a61195d565b68010000000000000000831115611c5357611c5361195d565b805483825580841015611c8a576000828152602081208581019083015b80821015611c8657828255600182019150611c70565b5050505b5060008181526020812083915b85811015611cbb57611ca883611c15565b8282015560209290920191600101611c97565b505050505050565b600081356103a481611a36565b813581556020820135600182015560408201356002820155606082013560038201556080820135601e19833603018112611d0957600080fd5b8201803567ffffffffffffffff811115611d2257600080fd5b6020820191508060051b3603821315611d3a57600080fd5b611d48818360048601611c22565b505060058101611d71611d5d60a08501611cc3565b825490151560ff1660ff1991909116178255565b611d9a611d8060c08501611cc3565b82805461ff00191691151560081b61ff0016919091179055565b611dc5611da960e08501611cc3565b82805462ff0000191691151560101b62ff000016919091179055565b505050565b8183526000602080850194508260005b85811015611e08578135611ded816116b4565b6001600160a01b031687529582019590820190600101611dda565b509495945050505050565b602081528135602082015260208201356040820152604082013560608201526060820135608082015260006080830135601e19843603018112611e5557600080fd5b830160208101903567ffffffffffffffff811115611e7257600080fd5b8060051b3603821315611e8457600080fd5b6101008060a0860152611e9c61012086018385611dca565b9250611eaa60a08701611a44565b80151560c08701529150611ec060c08701611a44565b80151560e08701529150611ed660e08701611a44565b15159401939093529392505050565b6101208101611ef48288611af6565b60a082019590955260c08101939093526001600160a01b0391821660e08401521661010090910152919050565b818103818111156103a4576103a4611bff565b60006101008083018b845260208b818601528a6040860152896060860152826080860152819250885180835261012086019350818a01925060005b81811015611f945783516001600160a01b031685529382019392820192600101611f6f565b5050505094151560a08301525091151560c0830152151560e09091015295945050505050565b6000808335601e19843603018112611fd157600080fd5b83018035915067ffffffffffffffff821115611fec57600080fd5b6020019150600581901b3603821315611be857600080fd5b808201808211156103a4576103a4611bff565b634e487b7160e01b600052603260045260246000fd5b60006001820161203f5761203f611bff565b5060010190565b60ff81811683821601908111156103a4576103a4611bff56fea2646970667358221220a482a22f25c8aa4eb475ca953a9e1e2ded5305de62a1baa5a7d4f91b4942581664736f6c63430008130033","linkReferences":{}},"methodIdentifiers":{"authorizeAgent(address,bytes32)":"e5e5aa31","borrowWithProof(address,uint256,address,address,(bytes32,bytes,bytes32[],uint256,bytes))":"f6c2d751","getAgentConfig(address)":"56bad863","getDailySpent(address)":"5b8c9337","getPolicy(bytes32)":"a3f685f9","getPolicyHash((uint256,uint256,uint256,uint256,address[],bool,bool,bool))":"02ba24c6","getRemainingDailyLimit(address)":"ec37d259","isAgentAuthorized(address,address)":"d84937fc","isProofUsed(bytes32)":"557bbf7f","morpho()":"d8fbc833","registerPolicy((uint256,uint256,uint256,uint256,address[],bool,bool,bool))":"4161ffa0","repayWithProof(address,uint256,address,(bytes32,bytes,bytes32[],uint256,bytes))":"260cac7e","revokeAgent(address)":"7da6ac0d","supplyWithProof(address,uint256,address,(bytes32,bytes,bytes32[],uint256,bytes))":"2616fc18","verifyProof((bytes32,bytes,bytes32[],uint256,bytes))":"c3a93179","withdrawWithProof(address,uint256,address,address,(bytes32,bytes,bytes32[],uint256,bytes))":"7050e235"},"id":0}