{"abi":[{"type":"constructor","inputs":[{"name":"_morpho","type":"address","internalType":"address"},{"name":"_verifier","type":"address","internalType":"address"}],"stateMutability":"nonpayable"},{"type":"function","name":"authorizeAgent","inputs":[{"name":"agent","type":"address","internalType":"address"},{"name":"policyHash","type":"bytes32","internalType":"bytes32"}],"outputs":[],"stateMutability":"nonpayable"},{"type":"function","name":"borrowWithProof","inputs":[{"name":"market","type":"address","internalType":"address"},{"name":"assets","type":"uint256","internalType":"uint256"},{"name":"onBehalf","type":"address","internalType":"address"},{"name":"receiver","type":"address","internalType":"address"},{"name":"proof","type":"tuple","internalType":"struct IMorphoSpendingGate.SpendingProof","components":[{"name":"policyHash","type":"bytes32","internalType":"bytes32"},{"name":"proof","type":"bytes","internalType":"bytes"},{"name":"publicInputs","type":"bytes32[]","internalType":"bytes32[]"},{"name":"timestamp","type":"uint256","internalType":"uint256"},{"name":"signature","type":"bytes","internalType":"bytes"}]}],"outputs":[{"name":"shares","type":"uint256","internalType":"uint256"}],"stateMutability":"nonpayable"},{"type":"function","name":"getAgentConfig","inputs":[{"name":"agent","type":"address","internalType":"address"}],"outputs":[{"name":"","type":"tuple","internalType":"struct IMorphoSpendingGate.AgentConfig","components":[{"name":"agent","type":"address","internalType":"address"},{"name":"owner","type":"address","internalType":"address"},{"name":"policyHash","type":"bytes32","internalType":"bytes32"},{"name":"dailySpent","type":"uint256","internalType":"uint256"},{"name":"lastResetTimestamp","type":"uint256","internalType":"uint256"},{"name":"isActive","type":"bool","internalType":"bool"}]}],"stateMutability":"view"},{"type":"function","name":"getDailySpent","inputs":[{"name":"agent","type":"address","internalType":"address"}],"outputs":[{"name":"","type":"uint256","internalType":"uint256"}],"stateMutability":"view"},{"type":"function","name":"getPolicy","inputs":[{"name":"policyHash","type":"bytes32","internalType":"bytes32"}],"outputs":[{"name":"","type":"tuple","internalType":"struct IMorphoSpendingGate.SpendingPolicy","components":[{"name":"dailyLimit","type":"uint256","internalType":"uint256"},{"name":"maxSingleTx","type":"uint256","internalType":"uint256"},{"name":"maxLTV","type":"uint256","internalType":"uint256"},{"name":"minHealthFactor","type":"uint256","internalType":"uint256"},{"name":"allowedMarkets","type":"address[]","internalType":"address[]"},{"name":"requireProofForSupply","type":"bool","internalType":"bool"},{"name":"requireProofForBorrow","type":"bool","internalType":"bool"},{"name":"requireProofForWithdraw","type":"bool","internalType":"bool"}]}],"stateMutability":"view"},{"type":"function","name":"getPolicyHash","inputs":[{"name":"policy","type":"tuple","internalType":"struct IMorphoSpendingGate.SpendingPolicy","components":[{"name":"dailyLimit","type":"uint256","internalType":"uint256"},{"name":"maxSingleTx","type":"uint256","internalType":"uint256"},{"name":"maxLTV","type":"uint256","internalType":"uint256"},{"name":"minHealthFactor","type":"uint256","internalType":"uint256"},{"name":"allowedMarkets","type":"address[]","internalType":"address[]"},{"name":"requireProofForSupply","type":"bool","internalType":"bool"},{"name":"requireProofForBorrow","type":"bool","internalType":"bool"},{"name":"requireProofForWithdraw","type":"bool","internalType":"bool"}]}],"outputs":[{"name":"","type":"bytes32","internalType":"bytes32"}],"stateMutability":"pure"},{"type":"function","name":"getRemainingDailyLimit","inputs":[{"name":"agent","type":"address","internalType":"address"}],"outputs":[{"name":"","type":"uint256","internalType":"uint256"}],"stateMutability":"view"},{"type":"function","name":"isAgentAuthorized","inputs":[{"name":"agent","type":"address","internalType":"address"},{"name":"owner","type":"address","internalType":"address"}],"outputs":[{"name":"","type":"bool","internalType":"bool"}],"stateMutability":"view"},{"type":"function","name":"morpho","inputs":[],"outputs":[{"name":"","type":"address","internalType":"contract IMorphoBlue"}],"stateMutability":"view"},{"type":"function","name":"registerPolicy","inputs":[{"name":"policy","type":"tuple","internalType":"struct IMorphoSpendingGate.SpendingPolicy","components":[{"name":"dailyLimit","type":"uint256","internalType":"uint256"},{"name":"maxSingleTx","type":"uint256","internalType":"uint256"},{"name":"maxLTV","type":"uint256","internalType":"uint256"},{"name":"minHealthFactor","type":"uint256","internalType":"uint256"},{"name":"allowedMarkets","type":"address[]","internalType":"address[]"},{"name":"requireProofForSupply","type":"bool","internalType":"bool"},{"name":"requireProofForBorrow","type":"bool","internalType":"bool"},{"name":"requireProofForWithdraw","type":"bool","internalType":"bool"}]}],"outputs":[{"name":"policyHash","type":"bytes32","internalType":"bytes32"}],"stateMutability":"nonpayable"},{"type":"function","name":"repayWithProof","inputs":[{"name":"market","type":"address","internalType":"address"},{"name":"assets","type":"uint256","internalType":"uint256"},{"name":"onBehalf","type":"address","internalType":"address"},{"name":"proof","type":"tuple","internalType":"struct IMorphoSpendingGate.SpendingProof","components":[{"name":"policyHash","type":"bytes32","internalType":"bytes32"},{"name":"proof","type":"bytes","internalType":"bytes"},{"name":"publicInputs","type":"bytes32[]","internalType":"bytes32[]"},{"name":"timestamp","type":"uint256","internalType":"uint256"},{"name":"signature","type":"bytes","internalType":"bytes"}]}],"outputs":[{"name":"repaid","type":"uint256","internalType":"uint256"}],"stateMutability":"nonpayable"},{"type":"function","name":"revokeAgent","inputs":[{"name":"agent","type":"address","internalType":"address"}],"outputs":[],"stateMutability":"nonpayable"},{"type":"function","name":"supplyWithProof","inputs":[{"name":"market","type":"address","internalType":"address"},{"name":"assets","type":"uint256","internalType":"uint256"},{"name":"onBehalf","type":"address","internalType":"address"},{"name":"proof","type":"tuple","internalType":"struct IMorphoSpendingGate.SpendingProof","components":[{"name":"policyHash","type":"bytes32","internalType":"bytes32"},{"name":"proof","type":"bytes","internalType":"bytes"},{"name":"publicInputs","type":"bytes32[]","internalType":"bytes32[]"},{"name":"timestamp","type":"uint256","internalType":"uint256"},{"name":"signature","type":"bytes","internalType":"bytes"}]}],"outputs":[{"name":"shares","type":"uint256","internalType":"uint256"}],"stateMutability":"nonpayable"},{"type":"function","name":"verifier","inputs":[],"outputs":[{"name":"","type":"address","internalType":"contract IJoltAtlasVerifier"}],"stateMutability":"view"},{"type":"function","name":"verifyProof","inputs":[{"name":"proof","type":"tuple","internalType":"struct IMorphoSpendingGate.SpendingProof","components":[{"name":"policyHash","type":"bytes32","internalType":"bytes32"},{"name":"proof","type":"bytes","internalType":"bytes"},{"name":"publicInputs","type":"bytes32[]","internalType":"bytes32[]"},{"name":"timestamp","type":"uint256","internalType":"uint256"},{"name":"signature","type":"bytes","internalType":"bytes"}]}],"outputs":[{"name":"","type":"bool","internalType":"bool"}],"stateMutability":"view"},{"type":"function","name":"withdrawWithProof","inputs":[{"name":"market","type":"address","internalType":"address"},{"name":"assets","type":"uint256","internalType":"uint256"},{"name":"onBehalf","type":"address","internalType":"address"},{"name":"receiver","type":"address","internalType":"address"},{"name":"proof","type":"tuple","internalType":"struct IMorphoSpendingGate.SpendingProof","components":[{"name":"policyHash","type":"bytes32","internalType":"bytes32"},{"name":"proof","type":"bytes","internalType":"bytes"},{"name":"publicInputs","type":"bytes32[]","internalType":"bytes32[]"},{"name":"timestamp","type":"uint256","internalType":"uint256"},{"name":"signature","type":"bytes","internalType":"bytes"}]}],"outputs":[{"name":"shares","type":"uint256","internalType":"uint256"}],"stateMutability":"nonpayable"},{"type":"event","name":"AgentAuthorized","inputs":[{"name":"owner","type":"address","indexed":true,"internalType":"address"},{"name":"agent","type":"address","indexed":true,"internalType":"address"},{"name":"policyHash","type":"bytes32","indexed":false,"internalType":"bytes32"}],"anonymous":false},{"type":"event","name":"AgentRevoked","inputs":[{"name":"owner","type":"address","indexed":true,"internalType":"address"},{"name":"agent","type":"address","indexed":true,"internalType":"address"}],"anonymous":false},{"type":"event","name":"BorrowExecuted","inputs":[{"name":"agent","type":"address","indexed":true,"internalType":"address"},{"name":"market","type":"address","indexed":true,"internalType":"address"},{"name":"amount","type":"uint256","indexed":false,"internalType":"uint256"},{"name":"proofHash","type":"bytes32","indexed":false,"internalType":"bytes32"}],"anonymous":false},{"type":"event","name":"PolicyRegistered","inputs":[{"name":"owner","type":"address","indexed":true,"internalType":"address"},{"name":"policyHash","type":"bytes32","indexed":true,"internalType":"bytes32"},{"name":"policy","type":"tuple","indexed":false,"internalType":"struct IMorphoSpendingGate.SpendingPolicy","components":[{"name":"dailyLimit","type":"uint256","internalType":"uint256"},{"name":"maxSingleTx","type":"uint256","internalType":"uint256"},{"name":"maxLTV","type":"uint256","internalType":"uint256"},{"name":"minHealthFactor","type":"uint256","internalType":"uint256"},{"name":"allowedMarkets","type":"address[]","internalType":"address[]"},{"name":"requireProofForSupply","type":"bool","internalType":"bool"},{"name":"requireProofForBorrow","type":"bool","internalType":"bool"},{"name":"requireProofForWithdraw","type":"bool","internalType":"bool"}]}],"anonymous":false},{"type":"event","name":"ProofVerified","inputs":[{"name":"agent","type":"address","indexed":true,"internalType":"address"},{"name":"policyHash","type":"bytes32","indexed":true,"internalType":"bytes32"},{"name":"proofHash","type":"bytes32","indexed":false,"internalType":"bytes32"}],"anonymous":false},{"type":"event","name":"RepayExecuted","inputs":[{"name":"agent","type":"address","indexed":true,"internalType":"address"},{"name":"market","type":"address","indexed":true,"internalType":"address"},{"name":"amount","type":"uint256","indexed":false,"internalType":"uint256"},{"name":"proofHash","type":"bytes32","indexed":false,"internalType":"bytes32"}],"anonymous":false},{"type":"event","name":"SupplyExecuted","inputs":[{"name":"agent","type":"address","indexed":true,"internalType":"address"},{"name":"market","type":"address","indexed":true,"internalType":"address"},{"name":"amount","type":"uint256","indexed":false,"internalType":"uint256"},{"name":"proofHash","type":"bytes32","indexed":false,"internalType":"bytes32"}],"anonymous":false},{"type":"event","name":"WithdrawExecuted","inputs":[{"name":"agent","type":"address","indexed":true,"internalType":"address"},{"name":"market","type":"address","indexed":true,"internalType":"address"},{"name":"amount","type":"uint256","indexed":false,"internalType":"uint256"},{"name":"proofHash","type":"bytes32","indexed":false,"internalType":"bytes32"}],"anonymous":false},{"type":"error","name":"AgentNotAuthorized","inputs":[]},{"type":"error","name":"ExceedsDailyLimit","inputs":[]},{"type":"error","name":"ExceedsSingleTxLimit","inputs":[]},{"type":"error","name":"HealthFactorTooLow","inputs":[]},{"type":"error","name":"InvalidProof","inputs":[]},{"type":"error","name":"InvalidSignature","inputs":[]},{"type":"error","name":"LTVExceeded","inputs":[]},{"type":"error","name":"MarketNotAllowed","inputs":[]},{"type":"error","name":"PolicyNotFound","inputs":[]},{"type":"error","name":"ProofExpired","inputs":[]}],"bytecode":{"object":"0x60c06040523480156200001157600080fd5b506040516200231f3803806200231f833981016040819052620000349162000069565b6001600160a01b039182166080521660a052620000a1565b80516001600160a01b03811681146200006457600080fd5b919050565b600080604083850312156200007d57600080fd5b62000088836200004c565b915062000098602084016200004c565b90509250929050565b60805160a05161222e620000f16000396000818161015601528181610a560152610f6501526000818161033a015281816103f00152818161055d015281816107870152610d6e015261222e6000f3fe608060405234801561001057600080fd5b50600436106101005760003560e01c80637da6ac0d11610097578063d8fbc83311610066578063d8fbc83314610335578063e5e5aa311461035c578063ec37d2591461036f578063f6c2d7511461038257600080fd5b80637da6ac0d146102ca578063a3f685f9146102df578063c3a93179146102ff578063d84937fc1461032257600080fd5b80634161ffa0116100d35780634161ffa01461019057806356bad863146101a35780635b8c9337146102a45780637050e235146102b757600080fd5b806302ba24c614610105578063260cac7e1461012b5780632616fc181461013e5780632b7ac3f314610151575b600080fd5b610118610113366004611787565b610395565b6040519081526020015b60405180910390f35b6101186101393660046117f3565b6103ae565b61011861014c3660046117f3565b6104e7565b6101787f000000000000000000000000000000000000000000000000000000000000000081565b6040516001600160a01b039091168152602001610122565b61011861019e366004611787565b610656565b61024d6101b136600461185f565b6040805160c081018252600080825260208201819052918101829052606081018290526080810182905260a0810191909152506001600160a01b03908116600090815260016020818152604092839020835160c0810185528154861681529281015490941690820152600283015491810191909152600382015460608201526004820154608082015260059091015460ff16151560a082015290565b604051610122919081516001600160a01b0390811682526020808401519091169082015260408083015190820152606080830151908201526080808301519082015260a09182015115159181019190915260c00190565b6101186102b236600461185f565b6106cb565b6101186102c536600461187c565b610709565b6102dd6102d836600461185f565b610884565b005b6102f26102ed3660046118fb565b61092b565b6040516101229190611914565b61031261030d3660046119ca565b610a4a565b6040519015158152602001610122565b610312610330366004611a07565b610afd565b6101787f000000000000000000000000000000000000000000000000000000000000000081565b6102dd61036a366004611a40565b610b56565b61011861037d36600461185f565b610c90565b61011861039036600461187c565b610cfd565b60006103a86103a383611b63565b610e5a565b92915050565b3360009081526001602052604081206103cb818487896003610eb1565b60006103d687611219565b6040516320b76e8160e01b81529091506001600160a01b037f000000000000000000000000000000000000000000000000000000000000000016906320b76e819061042c9084908a906000908b90600401611c44565b60408051808303816000875af115801561044a573d6000803e3d6000fd5b505050506040513d601f19601f8201168201806040525081019061046e9190611c8c565b50925060006104806020860186611cb0565b60405161048e929190611cfe565b604080519182900382208983526020830181905292506001600160a01b038a169133917f7466d74320590e65465f8dcbce8c4df5a8e8939bc52ee6dcbe10518f2594272b910160405180910390a3505050949350505050565b3360009081526001602052604081206105038184878986610eb1565b60028101546000908152602081905260409020600581015460ff1661052e5761052e8282888a611273565b6105388287611370565b600061054388611219565b60405163a99aad8960e01b81529091506001600160a01b037f0000000000000000000000000000000000000000000000000000000000000000169063a99aad89906105999084908b906000908c90600401611c44565b60408051808303816000875af11580156105b7573d6000803e3d6000fd5b505050506040513d601f19601f820116820180604052508101906105db9190611c8c565b9450600090506105ee6020870187611cb0565b6040516105fc929190611cfe565b604080519182900382208a83526020830181905292506001600160a01b038b169133917fd64f05cd01998b35b71b2fdac9f13ac5d5c2e4106759935ee85e40f44022868d910160405180910390a350505050949350505050565b60006106646103a383611b63565b600081815260208190526040902090915082906106818282611ddf565b90505080336001600160a01b03167f2cdb8f69753bb06f9c2b8dc9ae0afc70ca8eda7950e7b714b7a82a13fe0c314b846040516106be9190611f22565b60405180910390a3919050565b6001600160a01b038116600090815260016020526040812060048101546106f1906113ad565b156106ff5750600092915050565b6003015492915050565b3360009081526001602052604081206107268184888a6002610eb1565b60028101546000908152602081905260409020600581015462010000900460ff1615610758576107588282898b611273565b6107628288611370565b600061076d89611219565b604051635c2bea4960e01b81529091506001600160a01b037f00000000000000000000000000000000000000000000000000000000000000001690635c2bea49906107c59084908c906000908d908d90600401611ff4565b60408051808303816000875af11580156107e3573d6000803e3d6000fd5b505050506040513d601f19601f820116820180604052508101906108079190611c8c565b94506000905061081a6020870187611cb0565b604051610828929190611cfe565b604080519182900382208b83526020830181905292506001600160a01b038c169133917f6039c03007b8a384d522375b5e06abab5bd2c651707bffc872ed1d8a3e7525b291015b60405180910390a35050505095945050505050565b6001600160a01b0380821660009081526001602081905260409091209081015490911633146108c65760405163316ac86960e21b815260040160405180910390fd5b60058101805460ff199081169091553360008181526002602090815260408083206001600160a01b0388168085529252808320805490951690945592517f3855bc4f5f7ba28049e0abd622b6ffbbf63cb46e6b09593b9213c9fd38db5cad9190a35050565b61097960405180610100016040528060008152602001600081526020016000815260200160008152602001606081526020016000151581526020016000151581526020016000151581525090565b6000828152602081815260409182902082516101008101845281548152600182015481840152600282015481850152600382015460608201526004820180548551818602810186019096528086529194929360808601939290830182828015610a0b57602002820191906000526020600020905b81546001600160a01b031681526001909101906020018083116109ed575b50505091835250506005919091015460ff8082161515602084015261010082048116151560408401526201000090910416151560609091015292915050565b60006001600160a01b037f00000000000000000000000000000000000000000000000000000000000000001663fc7dd79f610a886020850185611cb0565b610a956040870187612030565b6040516001600160e01b031960e087901b168152610abc949392919089359060040161207a565b602060405180830381865afa158015610ad9573d6000803e3d6000fd5b505050506040513d601f19601f820116820180604052508101906103a891906120e7565b6001600160a01b03808216600090815260026020908152604080832093861683529290529081205460ff168015610b4f57506001600160a01b03831660009081526001602052604090206005015460ff165b9392505050565b600081815260208190526040902054158015610b815750600081815260208190526040902060020154155b15610b9f5760405163720caa4f60e01b815260040160405180910390fd5b6040805160c0810182526001600160a01b038481168083523360208085018281528587018881526000606088018181524260808a01908152600160a08b018181528985528188528c85209b518c54908c166001600160a01b0319918216178d5596518c8301805491909c1697169690961790995592516002808b0191909155905160038a01559151600489015591516005909701805497151560ff1998891617905583825282528681208482528252869020805490951690931790935592518481527f96a03b20d8e3ce1b5d1d63b95c8c25511513e905650783ef4c867c04170cc478910160405180910390a35050565b6001600160a01b03811660009081526001602090815260408083206002810154845291839052822060038201546004830154610ccb906113ad565b15610cd4575060005b81548110610ce757506000949350505050565b8154610cf4908290612104565b95945050505050565b336000908152600160208190526040822090610d20908290859089908b90610eb1565b60028101546000908152602081905260409020610d3f8282898b611273565b610d498288611370565b6000610d5489611219565b6040516350d8cd4b60e01b81529091506001600160a01b037f000000000000000000000000000000000000000000000000000000000000000016906350d8cd4b90610dac9084908c906000908d908d90600401611ff4565b60408051808303816000875af1158015610dca573d6000803e3d6000fd5b505050506040513d601f19601f82011682018060405250810190610dee9190611c8c565b945060009050610e016020870187611cb0565b604051610e0f929190611cfe565b604080519182900382208b83526020830181905292506001600160a01b038c169133917ff771944e9cace56078fbdaa03a0ed1b143ac25b4b54d826edcd7ac7421cbb570910161086f565b80516020808301516040808501516060860151608087015160a088015160c089015160e08a01519551600099610e94999098979101612117565b604051602081830303815290604052805190602001209050919050565b600585015460ff16610ed65760405163316ac86960e21b815260040160405180910390fd5b6000610ee56020860186611cb0565b604051610ef3929190611cfe565b604080519182900390912060008181526003602052919091205490915060ff1615610f31576040516309bde33960e01b815260040160405180910390fd5b610f3e85606001356113c5565b610f5b5760405163b67a771360e01b815260040160405180910390fd5b6001600160a01b037f00000000000000000000000000000000000000000000000000000000000000001663fc7dd79f610f976020880188611cb0565b610fa460408a018a612030565b6040516001600160e01b031960e087901b168152610fcb94939291908c359060040161207a565b602060405180830381865afa158015610fe8573d6000803e3d6000fd5b505050506040513d601f19601f8201168201806040525081019061100c91906120e7565b611029576040516309bde33960e01b815260040160405180910390fd5b600286015485351461104e576040516309bde33960e01b815260040160405180910390fd5b60006110656110606040880188612030565b6113dc565b90508281602001511461108b576040516309bde33960e01b815260040160405180910390fd5b848160400151146110af576040516309bde33960e01b815260040160405180910390fd5b836001600160a01b031681606001516001600160a01b0316146110e5576040516309bde33960e01b815260040160405180910390fd5b60808101516001600160a01b03163314611112576040516309bde33960e01b815260040160405180910390fd5b6000828260c00151604051602001611134929190918252602082015260400190565b60408051601f198184030181529190528051602090910120905061119a338261116060808b018b611cb0565b8080601f01602080910402602001604051908101604052809392919081815260200183838082843760009201919091525061156c92505050565b6111b757604051638baa579f60e01b815260040160405180910390fd5b60008381526003602052604090819020805460ff191660011790555187359033907f22bab73ff31bb5cb9a7dfe2a4b95b31e9ed548776192378f2dd873ea3a6e113b906112079087815260200190565b60405180910390a35050505050505050565b6040805160a080820183526000808352602080840182905283850182905260608085018390526080948501839052855193840186526001600160a01b03969096168352820181905292810183905292830182905282015290565b6112d981846004018054806020026020016040519081016040528092919081815260200182805480156112cf57602002820191906000526020600020905b81546001600160a01b031681526001909101906020018083116112b1575b5050505050611658565b6112f6576040516337a9c63960e11b815260040160405180910390fd5b6113048284600101546116cf565b611321576040516365ddd82960e11b815260040160405180910390fd5b60038401546004850154611334906113ad565b1561133d575060005b61134c838286600001546116e7565b6113695760405163158081a560e21b815260040160405180910390fd5b5050505050565b61137d82600401546113ad565b1561139057600382015542600490910155565b808260030160008282546113a4919061219d565b90915550505050565b60006113bc620151808361219d565b42101592915050565b60006113d361012c8361219d565b42111592915050565b6040805160e081018252600080825260208201819052918101829052606081018290526080810182905260a0810182905260c0810191909152600782101561146b5760405162461bcd60e51b815260206004820152601a60248201527f496e73756666696369656e74207075626c696320696e7075747300000000000060448201526064015b60405180910390fd5b8282600081811061147e5761147e6121b0565b60200291909101358252508282600181811061149c5761149c6121b0565b9050602002013560001c816020018181525050828260028181106114c2576114c26121b0565b6020029190910135604083015250828260038181106114e3576114e36121b0565b60200291909101356001600160a01b03166060830152508282600481811061150d5761150d6121b0565b60200291909101356001600160a01b031660808301525082826005818110611537576115376121b0565b602002919091013560a08301525082826006818110611558576115586121b0565b602002919091013560c08301525092915050565b6040517f19457468657265756d205369676e6564204d6573736167653a0a3332000000006020820152603c81018390526000908190605c0160405160208183030381529060405280519060200120905060008060006115ca866116fe565b92509250925060006001858386866040516000815260200160405260405161160e949392919093845260ff9290921660208401526040830152606082015260800190565b6020604051602081039080840390855afa158015611630573d6000803e3d6000fd5b5050604051601f1901516001600160a01b03908116908b161496505050505050509392505050565b6000815160000361166b575060016103a8565b60005b82518110156116c557836001600160a01b0316838281518110611693576116936121b0565b60200260200101516001600160a01b0316036116b35760019150506103a8565b806116bd816121c6565b91505061166e565b5060009392505050565b6000816000036116e1575060016103a8565b50101590565b6000816116f4858561219d565b1115949350505050565b600080600083516041146117545760405162461bcd60e51b815260206004820152601860248201527f496e76616c6964207369676e6174757265206c656e67746800000000000000006044820152606401611462565b50505060208101516040820151606083015160001a601b8110156117805761177d601b826121df565b90505b9193909250565b60006020828403121561179957600080fd5b813567ffffffffffffffff8111156117b057600080fd5b82016101008185031215610b4f57600080fd5b6001600160a01b03811681146117d857600080fd5b50565b600060a082840312156117ed57600080fd5b50919050565b6000806000806080858703121561180957600080fd5b8435611814816117c3565b935060208501359250604085013561182b816117c3565b9150606085013567ffffffffffffffff81111561184757600080fd5b611853878288016117db565b91505092959194509250565b60006020828403121561187157600080fd5b8135610b4f816117c3565b600080600080600060a0868803121561189457600080fd5b853561189f816117c3565b94506020860135935060408601356118b6816117c3565b925060608601356118c6816117c3565b9150608086013567ffffffffffffffff8111156118e257600080fd5b6118ee888289016117db565b9150509295509295909350565b60006020828403121561190d57600080fd5b5035919050565b600060208083526101208301845182850152818501516040850152604085015160608501526060850151608085015260808501516101008060a0870152828251808552610140880191508584019450600093505b808410156119915784516001600160a01b03168252938501936001939093019290850190611968565b5060a088015180151560c0890152945060c088015180151560e0890152945060e08801518015158884015294505b979650505050505050565b6000602082840312156119dc57600080fd5b813567ffffffffffffffff8111156119f357600080fd5b6119ff848285016117db565b949350505050565b60008060408385031215611a1a57600080fd5b8235611a25816117c3565b91506020830135611a35816117c3565b809150509250929050565b60008060408385031215611a5357600080fd5b8235611a5e816117c3565b946020939093013593505050565b634e487b7160e01b600052604160045260246000fd5b604051610100810167ffffffffffffffff81118282101715611aa657611aa6611a6c565b60405290565b600082601f830112611abd57600080fd5b8135602067ffffffffffffffff80831115611ada57611ada611a6c565b8260051b604051601f19603f83011681018181108482111715611aff57611aff611a6c565b604052938452858101830193838101925087851115611b1d57600080fd5b83870191505b848210156119bf578135611b36816117c3565b83529183019190830190611b23565b80151581146117d857600080fd5b8035611b5e81611b45565b919050565b60006101008236031215611b7657600080fd5b611b7e611a82565b82358152602083013560208201526040830135604082015260608301356060820152608083013567ffffffffffffffff811115611bba57600080fd5b611bc636828601611aac565b608083015250611bd860a08401611b53565b60a0820152611be960c08401611b53565b60c0820152611bfa60e08401611b53565b60e082015292915050565b80516001600160a01b03908116835260208083015182169084015260408083015182169084015260608083015190911690830152608090810151910152565b6000610120611c538388611c05565b60a08301959095525060c08101929092526001600160a01b031660e0820152610100810182905260009181019190915261014001919050565b60008060408385031215611c9f57600080fd5b505080516020909101519092909150565b6000808335601e19843603018112611cc757600080fd5b83018035915067ffffffffffffffff821115611ce257600080fd5b602001915036819003821315611cf757600080fd5b9250929050565b8183823760009101908152919050565b634e487b7160e01b600052601160045260246000fd5b600081356103a8816117c3565b67ffffffffffffffff831115611d4957611d49611a6c565b68010000000000000000831115611d6257611d62611a6c565b805483825580841015611d99576000828152602081208581019083015b80821015611d9557828255600182019150611d7f565b5050505b5060008181526020812083915b85811015611dca57611db783611d24565b8282015560209290920191600101611da6565b505050505050565b600081356103a881611b45565b813581556020820135600182015560408201356002820155606082013560038201556080820135601e19833603018112611e1857600080fd5b8201803567ffffffffffffffff811115611e3157600080fd5b6020820191508060051b3603821315611e4957600080fd5b611e57818360048601611d31565b505060058101611e80611e6c60a08501611dd2565b825490151560ff1660ff1991909116178255565b611ea9611e8f60c08501611dd2565b82805461ff00191691151560081b61ff0016919091179055565b611ed4611eb860e08501611dd2565b82805462ff0000191691151560101b62ff000016919091179055565b505050565b8183526000602080850194508260005b85811015611f17578135611efc816117c3565b6001600160a01b031687529582019590820190600101611ee9565b509495945050505050565b602081528135602082015260208201356040820152604082013560608201526060820135608082015260006080830135601e19843603018112611f6457600080fd5b830160208101903567ffffffffffffffff811115611f8157600080fd5b8060051b3603821315611f9357600080fd5b6101008060a0860152611fab61012086018385611ed9565b9250611fb960a08701611b53565b80151560c08701529150611fcf60c08701611b53565b80151560e08701529150611fe560e08701611b53565b15159401939093529392505050565b61012081016120038288611c05565b60a082019590955260c08101939093526001600160a01b0391821660e08401521661010090910152919050565b6000808335601e1984360301811261204757600080fd5b83018035915067ffffffffffffffff82111561206257600080fd5b6020019150600581901b3603821315611cf757600080fd5b6060815284606082015284866080830137600060808683018101829052601f19601f8801168301838103820160208501529081018590526001600160fb1b038511156120c557600080fd5b8460051b808760a084013760409390930193909352500160a001949350505050565b6000602082840312156120f957600080fd5b8151610b4f81611b45565b818103818111156103a8576103a8611d0e565b60006101008083018b845260208b818601528a6040860152896060860152826080860152819250885180835261012086019350818a01925060005b818110156121775783516001600160a01b031685529382019392820192600101612152565b5050505094151560a08301525091151560c0830152151560e09091015295945050505050565b808201808211156103a8576103a8611d0e565b634e487b7160e01b600052603260045260246000fd5b6000600182016121d8576121d8611d0e565b5060010190565b60ff81811683821601908111156103a8576103a8611d0e56fea264697066735822122052c4887537bfc55a8c7f7d7c2f2cdea4c8d6a84801a3294ef7a0ae7944a2216764736f6c63430008130033","linkReferences":{}},"methodIdentifiers":{"authorizeAgent(address,bytes32)":"e5e5aa31","borrowWithProof(address,uint256,address,address,(bytes32,bytes,bytes32[],uint256,bytes))":"f6c2d751","getAgentConfig(address)":"56bad863","getDailySpent(address)":"5b8c9337","getPolicy(bytes32)":"a3f685f9","getPolicyHash((uint256,uint256,uint256,uint256,address[],bool,bool,bool))":"02ba24c6","getRemainingDailyLimit(address)":"ec37d259","isAgentAuthorized(address,address)":"d84937fc","morpho()":"d8fbc833","registerPolicy((uint256,uint256,uint256,uint256,address[],bool,bool,bool))":"4161ffa0","repayWithProof(address,uint256,address,(bytes32,bytes,bytes32[],uint256,bytes))":"260cac7e","revokeAgent(address)":"7da6ac0d","supplyWithProof(address,uint256,address,(bytes32,bytes,bytes32[],uint256,bytes))":"2616fc18","verifier()":"2b7ac3f3","verifyProof((bytes32,bytes,bytes32[],uint256,bytes))":"c3a93179","withdrawWithProof(address,uint256,address,address,(bytes32,bytes,bytes32[],uint256,bytes))":"7050e235"},"id":0}