{"abi":[{"type":"function","name":"alwaysVerify","inputs":[],"outputs":[{"name":"","type":"bool","internalType":"bool"}],"stateMutability":"view"},{"type":"function","name":"getVerificationKey","inputs":[{"name":"policyType","type":"string","internalType":"string"}],"outputs":[{"name":"vk","type":"tuple","internalType":"struct IJoltAtlasVerifier.VerificationKey","components":[{"name":"keyHash","type":"bytes32","internalType":"bytes32"},{"name":"alpha","type":"uint256[]","internalType":"uint256[]"},{"name":"beta","type":"uint256[]","internalType":"uint256[]"},{"name":"gamma","type":"uint256[]","internalType":"uint256[]"},{"name":"delta","type":"uint256[]","internalType":"uint256[]"},{"name":"ic","type":"uint256[][]","internalType":"uint256[][]"}]}],"stateMutability":"view"},{"type":"function","name":"hasVerificationKey","inputs":[{"name":"policyType","type":"string","internalType":"string"}],"outputs":[{"name":"exists","type":"bool","internalType":"bool"}],"stateMutability":"view"},{"type":"function","name":"registerVerificationKey","inputs":[{"name":"policyType","type":"string","internalType":"string"},{"name":"vk","type":"tuple","internalType":"struct IJoltAtlasVerifier.VerificationKey","components":[{"name":"keyHash","type":"bytes32","internalType":"bytes32"},{"name":"alpha","type":"uint256[]","internalType":"uint256[]"},{"name":"beta","type":"uint256[]","internalType":"uint256[]"},{"name":"gamma","type":"uint256[]","internalType":"uint256[]"},{"name":"delta","type":"uint256[]","internalType":"uint256[]"},{"name":"ic","type":"uint256[][]","internalType":"uint256[][]"}]}],"outputs":[],"stateMutability":"nonpayable"},{"type":"function","name":"setAlwaysVerify","inputs":[{"name":"_value","type":"bool","internalType":"bool"}],"outputs":[],"stateMutability":"nonpayable"},{"type":"function","name":"verify","inputs":[{"name":"proof","type":"bytes","internalType":"bytes"},{"name":"publicInputs","type":"bytes32[]","internalType":"bytes32[]"},{"name":"policyHash","type":"bytes32","internalType":"bytes32"}],"outputs":[{"name":"valid","type":"bool","internalType":"bool"}],"stateMutability":"view"}],"bytecode":{"object":"0x60806040526002805460ff1916600117905534801561001d57600080fd5b50610a1d8061002d6000396000f3fe608060405234801561001057600080fd5b50600436106100625760003560e01c806302cf82991461006757806320e71658146100905780638a6664ae146100b357806392a796b7146100c857806395c00709146100d5578063fc7dd79f146100f6575b600080fd5b61007a61007536600461049c565b610109565b6040516100879190610519565b60405180910390f35b6100a361009e36600461049c565b61037a565b6040519015158152602001610087565b6100c66100c13660046105fb565b6103a9565b005b6002546100a39060ff1681565b6100c66100e336600461066b565b6002805460ff1916911515919091179055565b6100a3610104366004610694565b610410565b6101456040518060c001604052806000801916815260200160608152602001606081526020016060815260200160608152602001606081525090565b60008383604051610157929190610736565b90815260200160405180910390206040518060c001604052908160008201548152602001600182018054806020026020016040519081016040528092919081815260200182805480156101c957602002820191906000526020600020905b8154815260200190600101908083116101b5575b505050505081526020016002820180548060200260200160405190810160405280929190818152602001828054801561022157602002820191906000526020600020905b81548152602001906001019080831161020d575b505050505081526020016003820180548060200260200160405190810160405280929190818152602001828054801561027957602002820191906000526020600020905b815481526020019060010190808311610265575b50505050508152602001600482018054806020026020016040519081016040528092919081815260200182805480156102d157602002820191906000526020600020905b8154815260200190600101908083116102bd575b5050505050815260200160058201805480602002602001604051908101604052809291908181526020016000905b8282101561036b5760008481526020908190208301805460408051828502810185019091528181529283018282801561035757602002820191906000526020600020905b815481526020019060010190808311610343575b5050505050815260200190600101906102ff565b50505091525090949350505050565b60006001838360405161038e929190610736565b9081526040519081900360200190205460ff16905092915050565b80600084846040516103bc929190610736565b9081526040519081900360200190206103d5828261090d565b90505060018084846040516103eb929190610736565b908152604051908190036020019020805491151560ff19909216919091179055505050565b60006101008510156104245750600061044a565b60078310156104355750600061044a565b816104425750600061044a565b5060025460ff165b95945050505050565b60008083601f84011261046557600080fd5b50813567ffffffffffffffff81111561047d57600080fd5b60208301915083602082850101111561049557600080fd5b9250929050565b600080602083850312156104af57600080fd5b823567ffffffffffffffff8111156104c657600080fd5b6104d285828601610453565b90969095509350505050565b600081518084526020808501945080840160005b8381101561050e578151875295820195908201906001016104f2565b509495945050505050565b600060208083528351818401528084015160c0604085015261053e60e08501826104de565b90506040850151601f198086840301606087015261055c83836104de565b9250606087015191508086840301608087015261057983836104de565b925060808701519150808684030160a087015261059683836104de565b60a0880151878203830160c089015280518083529194508501925084840190600581901b8501860160005b828110156105ed57848783030184526105db8287516104de565b958801959388019391506001016105c1565b509998505050505050505050565b60008060006040848603121561061057600080fd5b833567ffffffffffffffff8082111561062857600080fd5b61063487838801610453565b9095509350602086013591508082111561064d57600080fd5b50840160c0818703121561066057600080fd5b809150509250925092565b60006020828403121561067d57600080fd5b8135801515811461068d57600080fd5b9392505050565b6000806000806000606086880312156106ac57600080fd5b853567ffffffffffffffff808211156106c457600080fd5b6106d089838a01610453565b909750955060208801359150808211156106e957600080fd5b818801915088601f8301126106fd57600080fd5b81358181111561070c57600080fd5b8960208260051b850101111561072157600080fd5b96999598505060200195604001359392505050565b8183823760009101908152919050565b6000808335601e1984360301811261075d57600080fd5b83018035915067ffffffffffffffff82111561077857600080fd5b6020019150600581901b360382131561049557600080fd5b634e487b7160e01b600052604160045260246000fd5b8054600080835581156107d757828152602081208281015b808210156107d4578282556001820191506107be565b50505b505050565b600160401b8211156107f0576107f0610790565b8054828255808310156107d7576000828152602081208481019083015b808210156108235782825560018201915061080d565b505050505050565b67ffffffffffffffff83111561084357610843610790565b61084d83826107dc565b818160005260208060002060005b86811015610875578335828201559282019260010161085b565b50505050505050565b600160401b83111561089257610892610790565b8054838255808410156108ce576000828152602090208481019082015b808210156108cb576108c0826107a6565b6001820191506108af565b50505b5060008181526020812083915b85811015610823576108ed8386610746565b6108f881838661082b565b505060209290920191600191820191016108db565b813581556001808201602061092481860186610746565b67ffffffffffffffff81111561093c5761093c610790565b61094681856107dc565b6000938452828420935b8181101561096957823585820155918301918501610950565b50505050505061097c6040830183610746565b61098a81836002860161082b565b50506109996060830183610746565b6109a781836003860161082b565b50506109b66080830183610746565b6109c481836004860161082b565b50506109d360a0830183610746565b6109e181836005860161087e565b5050505056fea264697066735822122056459ba3fb9e770ffe3b8c51fa2e298c91d8460b81075b963ba303b0d495eb6164736f6c63430008130033","linkReferences":{}},"methodIdentifiers":{"alwaysVerify()":"92a796b7","getVerificationKey(string)":"02cf8299","hasVerificationKey(string)":"20e71658","registerVerificationKey(string,(bytes32,uint256[],uint256[],uint256[],uint256[],uint256[][]))":"8a6664ae","setAlwaysVerify(bool)":"95c00709","verify(bytes,bytes32[],bytes32)":"fc7dd79f"},"id":6}